{
  "contractName": "CrowdFunding",
  "abi": [
    {
      "inputs": [
        {
          "internalType": "uint256",
          "name": "",
          "type": "uint256"
        }
      ],
      "name": "campaigns",
      "outputs": [
        {
          "internalType": "address payable",
          "name": "receipientAddress",
          "type": "address"
        },
        {
          "internalType": "string",
          "name": "title",
          "type": "string"
        },
        {
          "internalType": "string",
          "name": "description",
          "type": "string"
        },
        {
          "internalType": "string",
          "name": "imageUrl",
          "type": "string"
        },
        {
          "internalType": "uint256",
          "name": "target",
          "type": "uint256"
        },
        {
          "internalType": "string",
          "name": "deadline",
          "type": "string"
        },
        {
          "internalType": "uint256",
          "name": "received",
          "type": "uint256"
        },
        {
          "internalType": "uint256",
          "name": "id",
          "type": "uint256"
        },
        {
          "internalType": "bool",
          "name": "completed",
          "type": "bool"
        }
      ],
      "stateMutability": "view",
      "type": "function",
      "constant": true
    },
    {
      "inputs": [],
      "name": "numberOfCampaigns",
      "outputs": [
        {
          "internalType": "uint256",
          "name": "",
          "type": "uint256"
        }
      ],
      "stateMutability": "view",
      "type": "function",
      "constant": true
    },
    {
      "inputs": [
        {
          "internalType": "string",
          "name": "_title",
          "type": "string"
        },
        {
          "internalType": "string",
          "name": "_description",
          "type": "string"
        },
        {
          "internalType": "string",
          "name": "_imageUrl",
          "type": "string"
        },
        {
          "internalType": "uint256",
          "name": "_target",
          "type": "uint256"
        },
        {
          "internalType": "string",
          "name": "_deadline",
          "type": "string"
        }
      ],
      "name": "addCampaigns",
      "outputs": [],
      "stateMutability": "nonpayable",
      "type": "function"
    },
    {
      "inputs": [],
      "name": "getCampaigns",
      "outputs": [
        {
          "components": [
            {
              "internalType": "address payable",
              "name": "receipientAddress",
              "type": "address"
            },
            {
              "internalType": "string",
              "name": "title",
              "type": "string"
            },
            {
              "internalType": "string",
              "name": "description",
              "type": "string"
            },
            {
              "internalType": "string",
              "name": "imageUrl",
              "type": "string"
            },
            {
              "internalType": "uint256",
              "name": "target",
              "type": "uint256"
            },
            {
              "internalType": "string",
              "name": "deadline",
              "type": "string"
            },
            {
              "internalType": "uint256",
              "name": "received",
              "type": "uint256"
            },
            {
              "internalType": "uint256",
              "name": "id",
              "type": "uint256"
            },
            {
              "internalType": "bool",
              "name": "completed",
              "type": "bool"
            }
          ],
          "internalType": "struct CrowdFunding.Campaign[]",
          "name": "",
          "type": "tuple[]"
        }
      ],
      "stateMutability": "view",
      "type": "function",
      "constant": true
    },
    {
      "inputs": [
        {
          "internalType": "uint256",
          "name": "index",
          "type": "uint256"
        }
      ],
      "name": "getCampaignDetails",
      "outputs": [
        {
          "components": [
            {
              "internalType": "address payable",
              "name": "receipientAddress",
              "type": "address"
            },
            {
              "internalType": "string",
              "name": "title",
              "type": "string"
            },
            {
              "internalType": "string",
              "name": "description",
              "type": "string"
            },
            {
              "internalType": "string",
              "name": "imageUrl",
              "type": "string"
            },
            {
              "internalType": "uint256",
              "name": "target",
              "type": "uint256"
            },
            {
              "internalType": "string",
              "name": "deadline",
              "type": "string"
            },
            {
              "internalType": "uint256",
              "name": "received",
              "type": "uint256"
            },
            {
              "internalType": "uint256",
              "name": "id",
              "type": "uint256"
            },
            {
              "internalType": "bool",
              "name": "completed",
              "type": "bool"
            }
          ],
          "internalType": "struct CrowdFunding.Campaign",
          "name": "",
          "type": "tuple"
        }
      ],
      "stateMutability": "view",
      "type": "function",
      "constant": true
    },
    {
      "inputs": [
        {
          "internalType": "uint256",
          "name": "index",
          "type": "uint256"
        }
      ],
      "name": "donateToCampaign",
      "outputs": [],
      "stateMutability": "payable",
      "type": "function",
      "payable": true
    }
  ],
  "bytecode": "0x6080604052600060015534801561001557600080fd5b50611ad0806100256000396000f3fe6080604052600436106100555760003560e01c806307ca140d1461005a578063141961bc1461008557806342a4fda8146100ca578063460948f4146100e6578063a6b036331461010f578063d993de621461013a575b600080fd5b34801561006657600080fd5b5061006f610177565b60405161007c9190610e30565b60405180910390f35b34801561009157600080fd5b506100ac60048036038101906100a79190610e8b565b61017d565b6040516100c199989796959493929190610fa4565b60405180910390f35b6100e460048036038101906100df9190610e8b565b610428565b005b3480156100f257600080fd5b5061010d60048036038101906101089190611182565b61059a565b005b34801561011b57600080fd5b50610124610763565b6040516101319190611480565b60405180910390f35b34801561014657600080fd5b50610161600480360381019061015c9190610e8b565b610a9a565b60405161016e919061157c565b60405180910390f35b60015481565b6000818154811061018d57600080fd5b90600052602060002090600902016000915090508060000160009054906101000a900473ffffffffffffffffffffffffffffffffffffffff16908060010180546101d6906115cd565b80601f0160208091040260200160405190810160405280929190818152602001828054610202906115cd565b801561024f5780601f106102245761010080835404028352916020019161024f565b820191906000526020600020905b81548152906001019060200180831161023257829003601f168201915b505050505090806002018054610264906115cd565b80601f0160208091040260200160405190810160405280929190818152602001828054610290906115cd565b80156102dd5780601f106102b2576101008083540402835291602001916102dd565b820191906000526020600020905b8154815290600101906020018083116102c057829003601f168201915b5050505050908060030180546102f2906115cd565b80601f016020809104026020016040519081016040528092919081815260200182805461031e906115cd565b801561036b5780601f106103405761010080835404028352916020019161036b565b820191906000526020600020905b81548152906001019060200180831161034e57829003601f168201915b505050505090806004015490806005018054610386906115cd565b80601f01602080910402602001604051908101604052809291908181526020018280546103b2906115cd565b80156103ff5780601f106103d4576101008083540402835291602001916103ff565b820191906000526020600020905b8154815290600101906020018083116103e257829003601f168201915b5050505050908060060154908060070154908060080160009054906101000a900460ff16905089565b600080549050811061046f576040517f08c379a00000000000000000000000000000000000000000000000000000000081526004016104669061164a565b60405180910390fd5b60008082815481106104845761048361166a565b5b906000526020600020906009020190508060080160009054906101000a900460ff16156104e6576040517f08c379a00000000000000000000000000000000000000000000000000000000081526004016104dd906116e5565b60405180910390fd5b8060000160009054906101000a900473ffffffffffffffffffffffffffffffffffffffff1673ffffffffffffffffffffffffffffffffffffffff166108fc349081150290604051600060405180830381858888f19350505050158015610550573d6000803e3d6000fd5b503481600601546105619190611734565b816006018190555080600401548160060154106105965760018160080160006101000a81548160ff0219169083151502179055505b5050565b600082116105dd576040517f08c379a00000000000000000000000000000000000000000000000000000000081526004016105d4906117b4565b60405180910390fd5b60006040518061012001604052803373ffffffffffffffffffffffffffffffffffffffff16815260200187815260200186815260200185815260200184815260200183815260200160008152602001600154815260200160001515815250908060018154018082558091505060019003906000526020600020906009020160009091909190915060008201518160000160006101000a81548173ffffffffffffffffffffffffffffffffffffffff021916908373ffffffffffffffffffffffffffffffffffffffff16021790555060208201518160010190816106c09190611980565b5060408201518160020190816106d69190611980565b5060608201518160030190816106ec9190611980565b506080820151816004015560a082015181600501908161070c9190611980565b5060c0820151816006015560e082015181600701556101008201518160080160006101000a81548160ff02191690831515021790555050506001600081548092919061075790611a52565b91905055505050505050565b60606000805480602002602001604051908101604052809291908181526020016000905b82821015610a915783829060005260206000209060090201604051806101200160405290816000820160009054906101000a900473ffffffffffffffffffffffffffffffffffffffff1673ffffffffffffffffffffffffffffffffffffffff1673ffffffffffffffffffffffffffffffffffffffff168152602001600182018054610811906115cd565b80601f016020809104026020016040519081016040528092919081815260200182805461083d906115cd565b801561088a5780601f1061085f5761010080835404028352916020019161088a565b820191906000526020600020905b81548152906001019060200180831161086d57829003601f168201915b505050505081526020016002820180546108a3906115cd565b80601f01602080910402602001604051908101604052809291908181526020018280546108cf906115cd565b801561091c5780601f106108f15761010080835404028352916020019161091c565b820191906000526020600020905b8154815290600101906020018083116108ff57829003601f168201915b50505050508152602001600382018054610935906115cd565b80601f0160208091040260200160405190810160405280929190818152602001828054610961906115cd565b80156109ae5780601f10610983576101008083540402835291602001916109ae565b820191906000526020600020905b81548152906001019060200180831161099157829003601f168201915b50505050508152602001600482015481526020016005820180546109d1906115cd565b80601f01602080910402602001604051908101604052809291908181526020018280546109fd906115cd565b8015610a4a5780601f10610a1f57610100808354040283529160200191610a4a565b820191906000526020600020905b815481529060010190602001808311610a2d57829003601f168201915b5050505050815260200160068201548152602001600782015481526020016008820160009054906101000a900460ff16151515158152505081526020019060010190610787565b50505050905090565b610aa2610db3565b6000808381548110610ab757610ab661166a565b5b9060005260206000209060090201604051806101200160405290816000820160009054906101000a900473ffffffffffffffffffffffffffffffffffffffff1673ffffffffffffffffffffffffffffffffffffffff1673ffffffffffffffffffffffffffffffffffffffff168152602001600182018054610b37906115cd565b80601f0160208091040260200160405190810160405280929190818152602001828054610b63906115cd565b8015610bb05780601f10610b8557610100808354040283529160200191610bb0565b820191906000526020600020905b815481529060010190602001808311610b9357829003601f168201915b50505050508152602001600282018054610bc9906115cd565b80601f0160208091040260200160405190810160405280929190818152602001828054610bf5906115cd565b8015610c425780601f10610c1757610100808354040283529160200191610c42565b820191906000526020600020905b815481529060010190602001808311610c2557829003601f168201915b50505050508152602001600382018054610c5b906115cd565b80601f0160208091040260200160405190810160405280929190818152602001828054610c87906115cd565b8015610cd45780601f10610ca957610100808354040283529160200191610cd4565b820191906000526020600020905b815481529060010190602001808311610cb757829003601f168201915b5050505050815260200160048201548152602001600582018054610cf7906115cd565b80601f0160208091040260200160405190810160405280929190818152602001828054610d23906115cd565b8015610d705780601f10610d4557610100808354040283529160200191610d70565b820191906000526020600020905b815481529060010190602001808311610d5357829003601f168201915b5050505050815260200160068201548152602001600782015481526020016008820160009054906101000a900460ff161515151581525050905080915050919050565b604051806101200160405280600073ffffffffffffffffffffffffffffffffffffffff168152602001606081526020016060815260200160608152602001600081526020016060815260200160008152602001600081526020016000151581525090565b6000819050919050565b610e2a81610e17565b82525050565b6000602082019050610e456000830184610e21565b92915050565b6000604051905090565b600080fd5b600080fd5b610e6881610e17565b8114610e7357600080fd5b50565b600081359050610e8581610e5f565b92915050565b600060208284031215610ea157610ea0610e55565b5b6000610eaf84828501610e76565b91505092915050565b600073ffffffffffffffffffffffffffffffffffffffff82169050919050565b6000610ee382610eb8565b9050919050565b610ef381610ed8565b82525050565b600081519050919050565b600082825260208201905092915050565b60005b83811015610f33578082015181840152602081019050610f18565b60008484015250505050565b6000601f19601f8301169050919050565b6000610f5b82610ef9565b610f658185610f04565b9350610f75818560208601610f15565b610f7e81610f3f565b840191505092915050565b60008115159050919050565b610f9e81610f89565b82525050565b600061012082019050610fba600083018c610eea565b8181036020830152610fcc818b610f50565b90508181036040830152610fe0818a610f50565b90508181036060830152610ff48189610f50565b90506110036080830188610e21565b81810360a08301526110158187610f50565b905061102460c0830186610e21565b61103160e0830185610e21565b61103f610100830184610f95565b9a9950505050505050505050565b600080fd5b600080fd5b7f4e487b7100000000000000000000000000000000000000000000000000000000600052604160045260246000fd5b61108f82610f3f565b810181811067ffffffffffffffff821117156110ae576110ad611057565b5b80604052505050565b60006110c1610e4b565b90506110cd8282611086565b919050565b600067ffffffffffffffff8211156110ed576110ec611057565b5b6110f682610f3f565b9050602081019050919050565b82818337600083830152505050565b6000611125611120846110d2565b6110b7565b90508281526020810184848401111561114157611140611052565b5b61114c848285611103565b509392505050565b600082601f8301126111695761116861104d565b5b8135611179848260208601611112565b91505092915050565b600080600080600060a0868803121561119e5761119d610e55565b5b600086013567ffffffffffffffff8111156111bc576111bb610e5a565b5b6111c888828901611154565b955050602086013567ffffffffffffffff8111156111e9576111e8610e5a565b5b6111f588828901611154565b945050604086013567ffffffffffffffff81111561121657611215610e5a565b5b61122288828901611154565b935050606061123388828901610e76565b925050608086013567ffffffffffffffff81111561125457611253610e5a565b5b61126088828901611154565b9150509295509295909350565b600081519050919050565b600082825260208201905092915050565b6000819050602082019050919050565b6112a281610ed8565b82525050565b600082825260208201905092915050565b60006112c482610ef9565b6112ce81856112a8565b93506112de818560208601610f15565b6112e781610f3f565b840191505092915050565b6112fb81610e17565b82525050565b61130a81610f89565b82525050565b6000610120830160008301516113296000860182611299565b506020830151848203602086015261134182826112b9565b9150506040830151848203604086015261135b82826112b9565b9150506060830151848203606086015261137582826112b9565b915050608083015161138a60808601826112f2565b5060a083015184820360a08601526113a282826112b9565b91505060c08301516113b760c08601826112f2565b5060e08301516113ca60e08601826112f2565b506101008301516113df610100860182611301565b508091505092915050565b60006113f68383611310565b905092915050565b6000602082019050919050565b60006114168261126d565b6114208185611278565b93508360208202850161143285611289565b8060005b8581101561146e578484038952815161144f85826113ea565b945061145a836113fe565b925060208a01995050600181019050611436565b50829750879550505050505092915050565b6000602082019050818103600083015261149a818461140b565b905092915050565b6000610120830160008301516114bb6000860182611299565b50602083015184820360208601526114d382826112b9565b915050604083015184820360408601526114ed82826112b9565b9150506060830151848203606086015261150782826112b9565b915050608083015161151c60808601826112f2565b5060a083015184820360a086015261153482826112b9565b91505060c083015161154960c08601826112f2565b5060e083015161155c60e08601826112f2565b50610100830151611571610100860182611301565b508091505092915050565b6000602082019050818103600083015261159681846114a2565b905092915050565b7f4e487b7100000000000000000000000000000000000000000000000000000000600052602260045260246000fd5b600060028204905060018216806115e557607f821691505b6020821081036115f8576115f761159e565b5b50919050565b7f496e76616c69642063616d706169676e20696e64657800000000000000000000600082015250565b6000611634601683610f04565b915061163f826115fe565b602082019050919050565b6000602082019050818103600083015261166381611627565b9050919050565b7f4e487b7100000000000000000000000000000000000000000000000000000000600052603260045260246000fd5b7f43616d706169676e20636f6d706c657465640000000000000000000000000000600082015250565b60006116cf601283610f04565b91506116da82611699565b602082019050919050565b600060208201905081810360008301526116fe816116c2565b9050919050565b7f4e487b7100000000000000000000000000000000000000000000000000000000600052601160045260246000fd5b600061173f82610e17565b915061174a83610e17565b925082820190508082111561176257611761611705565b5b92915050565b7f54617267657420616d6f756e74206d757374206e6f74206265207a65726f0000600082015250565b600061179e601e83610f04565b91506117a982611768565b602082019050919050565b600060208201905081810360008301526117cd81611791565b9050919050565b60008190508160005260206000209050919050565b60006020601f8301049050919050565b600082821b905092915050565b6000600883026118367fffffffffffffffffffffffffffffffffffffffffffffffffffffffffffffffff826117f9565b61184086836117f9565b95508019841693508086168417925050509392505050565b6000819050919050565b600061187d61187861187384610e17565b611858565b610e17565b9050919050565b6000819050919050565b61189783611862565b6118ab6118a382611884565b848454611806565b825550505050565b600090565b6118c06118b3565b6118cb81848461188e565b505050565b5b818110156118ef576118e46000826118b8565b6001810190506118d1565b5050565b601f82111561193457611905816117d4565b61190e846117e9565b8101602085101561191d578190505b611931611929856117e9565b8301826118d0565b50505b505050565b600082821c905092915050565b600061195760001984600802611939565b1980831691505092915050565b60006119708383611946565b9150826002028217905092915050565b61198982610ef9565b67ffffffffffffffff8111156119a2576119a1611057565b5b6119ac82546115cd565b6119b78282856118f3565b600060209050601f8311600181146119ea57600084156119d8578287015190505b6119e28582611964565b865550611a4a565b601f1984166119f8866117d4565b60005b82811015611a20578489015182556001820191506020850194506020810190506119fb565b86831015611a3d5784890151611a39601f891682611946565b8355505b6001600288020188555050505b505050505050565b6000611a5d82610e17565b91507fffffffffffffffffffffffffffffffffffffffffffffffffffffffffffffffff8203611a8f57611a8e611705565b5b60018201905091905056fea2646970667358221220388e482c1d0ebc5414ec1f1e6f9ae64c6cdd4770441e93c6bbd289056ef7a26164736f6c63430008130033",
  "immutableReferences": {},
  "source": "// SPDX-License-Identifier: UNLICENSED\npragma solidity ^0.8.9;\n\ncontract CrowdFunding{\n    struct Campaign{\n        address payable receipientAddress;\n        string title;\n        string description;\n        string imageUrl;\n        uint target;\n        string deadline;\n        uint received;\n        uint id;\n        bool completed;\n    }\n    Campaign[] public campaigns;\n    uint public numberOfCampaigns = 0;\n    function addCampaigns(string memory _title, string memory _description, string memory _imageUrl, uint _target, string memory _deadline ) public {\n        require(_target > 0,\"Target amount must not be zero\");\n        campaigns.push(Campaign({\n            receipientAddress:payable(msg.sender),\n            title:_title,\n            description:_description,\n            imageUrl:_imageUrl,\n            target:_target,\n            deadline:_deadline,\n            received:0,\n            id:numberOfCampaigns,\n            completed:false\n        }));\n        numberOfCampaigns++;\n    }\n    function getCampaigns() public view returns(Campaign[] memory){\n        return campaigns;\n    } \n    function getCampaignDetails(uint index) public view returns(Campaign memory){\n        Campaign memory campaign = campaigns[index];\n        return campaign;\n    }\n    function donateToCampaign(uint index) public payable {\n        require(index < campaigns.length, \"Invalid campaign index\");\n        Campaign storage campaign = campaigns[index];\n        require(!campaign.completed,\"Campaign completed\");\n        campaign.receipientAddress.transfer(msg.value);\n        campaign.received = campaign.received + msg.value; \n        if(campaign.received>=campaign.target){\n            campaign.completed = true;\n        }\n    } \n}",
  "sourcePath": "/Users/uday/Desktop/Blockchain/project/contracts/CrowdFunding.sol",
  "compiler": {
    "name": "solc",
    "version": "0.8.19+commit.7dd6d404.Emscripten.clang"
  },
  "schemaVersion": "3.4.12",
  "updatedAt": "2023-03-30T13:56:42.019Z",
  "networkType": "ethereum",
  "devdoc": {
    "kind": "dev",
    "methods": {},
    "version": 1
  },
  "userdoc": {
    "kind": "user",
    "methods": {},
    "version": 1
  }
}